{"abi":[{"inputs":[],"stateMutability":"payable","type":"constructor"},{"anonymous":false,"inputs":[{"indexed":false,"internalType":"string","name":"_link","type":"string"},{"indexed":false,"internalType":"string","name":"_type","type":"string"},{"indexed":false,"internalType":"string","name":"_extra","type":"string"},{"indexed":false,"internalType":"uint256","name":"_score","type":"uint256"},{"indexed":false,"internalType":"uint256","name":"_time","type":"uint256"}],"name":"newPublished","type":"event"},{"inputs":[{"internalType":"string","name":"_link","type":"string"},{"internalType":"string","name":"_type","type":"string"},{"internalType":"string","name":"_extra","type":"string"}],"name":"publish","outputs":[],"stateMutability":"payable","type":"function"},{"inputs":[],"name":"withdraw","outputs":[],"stateMutability":"nonpayable","type":"function"}],"evm":{"bytecode":{"linkReferences":{},"object":"6080604052336000806101000a81548173ffffffffffffffffffffffffffffffffffffffff021916908373ffffffffffffffffffffffffffffffffffffffff1602179055506104cc806100536000396000f3fe6080604052600436106100295760003560e01c80633ccfd60b1461002e5780636d25e37714610045575b600080fd5b34801561003a57600080fd5b50610043610061565b005b61005f600480360381019061005a9190610232565b61018f565b005b60008054906101000a900473ffffffffffffffffffffffffffffffffffffffff1673ffffffffffffffffffffffffffffffffffffffff163373ffffffffffffffffffffffffffffffffffffffff16146100b957600080fd5b600047905060008060009054906101000a900473ffffffffffffffffffffffffffffffffffffffff1673ffffffffffffffffffffffffffffffffffffffff168260405161010590610368565b60006040518083038185875af1925050503d8060008114610142576040519150601f19603f3d011682016040523d82523d6000602084013e610147565b606091505b505090508061018b576040517f08c379a0000000000000000000000000000000000000000000000000000000008152600401610182906103eb565b60405180910390fd5b5050565b7f808553acacb0928aa69f09741a71f8c32945a5025b355b67fa2afa75114507ec86868686868634426040516101cc98979695949392919061037d565b60405180910390a1505050505050565b60008083601f8401126101f2576101f1610445565b5b8235905067ffffffffffffffff81111561020f5761020e610440565b5b60208301915083600182028301111561022b5761022a61044a565b5b9250929050565b6000806000806000806060878903121561024f5761024e610454565b5b600087013567ffffffffffffffff81111561026d5761026c61044f565b5b61027989828a016101dc565b9650965050602087013567ffffffffffffffff81111561029c5761029b61044f565b5b6102a889828a016101dc565b9450945050604087013567ffffffffffffffff8111156102cb576102ca61044f565b5b6102d789828a016101dc565b92509250509295509295509295565b60006102f28385610416565b93506102ff838584610431565b61030883610459565b840190509392505050565b6000610320601483610416565b915061032b8261046a565b602082019050919050565b600061034360008361040b565b915061034e82610493565b600082019050919050565b61036281610427565b82525050565b600061037382610336565b9150819050919050565b600060a0820190508181036000830152610398818a8c6102e6565b905081810360208301526103ad81888a6102e6565b905081810360408301526103c28186886102e6565b90506103d16060830185610359565b6103de6080830184610359565b9998505050505050505050565b6000602082019050818103600083015261040481610313565b9050919050565b600081905092915050565b600082825260208201905092915050565b6000819050919050565b82818337600083830152505050565b600080fd5b600080fd5b600080fd5b600080fd5b600080fd5b6000601f19601f8301169050919050565b7f4661696c656420746f2073656e64204574686572000000000000000000000000600082015250565b5056fea264697066735822122030bfee9417648855224b04d519fd19a61a38cebc7e75fd4ae4f0e68c389e665464736f6c63430008070033","opcodes":"PUSH1 0x80 PUSH1 0x40 MSTORE CALLER PUSH1 0x0 DUP1 PUSH2 0x100 EXP DUP2 SLOAD DUP2 PUSH20 0xFFFFFFFFFFFFFFFFFFFFFFFFFFFFFFFFFFFFFFFF MUL NOT AND SWAP1 DUP4 PUSH20 0xFFFFFFFFFFFFFFFFFFFFFFFFFFFFFFFFFFFFFFFF AND MUL OR SWAP1 SSTORE POP PUSH2 0x4CC DUP1 PUSH2 0x53 PUSH1 0x0 CODECOPY PUSH1 0x0 RETURN INVALID PUSH1 0x80 PUSH1 0x40 MSTORE PUSH1 0x4 CALLDATASIZE LT PUSH2 0x29 JUMPI PUSH1 0x0 CALLDATALOAD PUSH1 0xE0 SHR DUP1 PUSH4 0x3CCFD60B EQ PUSH2 0x2E JUMPI DUP1 PUSH4 0x6D25E377 EQ PUSH2 0x45 JUMPI JUMPDEST PUSH1 0x0 DUP1 REVERT JUMPDEST CALLVALUE DUP1 ISZERO PUSH2 0x3A JUMPI PUSH1 0x0 DUP1 REVERT JUMPDEST POP PUSH2 0x43 PUSH2 0x61 JUMP JUMPDEST STOP JUMPDEST PUSH2 0x5F PUSH1 0x4 DUP1 CALLDATASIZE SUB DUP2 ADD SWAP1 PUSH2 0x5A SWAP2 SWAP1 PUSH2 0x232 JUMP JUMPDEST PUSH2 0x18F JUMP JUMPDEST STOP JUMPDEST PUSH1 0x0 DUP1 SLOAD SWAP1 PUSH2 0x100 EXP SWAP1 DIV PUSH20 0xFFFFFFFFFFFFFFFFFFFFFFFFFFFFFFFFFFFFFFFF AND PUSH20 0xFFFFFFFFFFFFFFFFFFFFFFFFFFFFFFFFFFFFFFFF AND CALLER PUSH20 0xFFFFFFFFFFFFFFFFFFFFFFFFFFFFFFFFFFFFFFFF AND EQ PUSH2 0xB9 JUMPI PUSH1 0x0 DUP1 REVERT JUMPDEST PUSH1 0x0 SELFBALANCE SWAP1 POP PUSH1 0x0 DUP1 PUSH1 0x0 SWAP1 SLOAD SWAP1 PUSH2 0x100 EXP SWAP1 DIV PUSH20 0xFFFFFFFFFFFFFFFFFFFFFFFFFFFFFFFFFFFFFFFF AND PUSH20 0xFFFFFFFFFFFFFFFFFFFFFFFFFFFFFFFFFFFFFFFF AND DUP3 PUSH1 0x40 MLOAD PUSH2 0x105 SWAP1 PUSH2 0x368 JUMP JUMPDEST PUSH1 0x0 PUSH1 0x40 MLOAD DUP1 DUP4 SUB DUP2 DUP6 DUP8 GAS CALL SWAP3 POP POP POP RETURNDATASIZE DUP1 PUSH1 0x0 DUP2 EQ PUSH2 0x142 JUMPI PUSH1 0x40 MLOAD SWAP2 POP PUSH1 0x1F NOT PUSH1 0x3F RETURNDATASIZE ADD AND DUP3 ADD PUSH1 0x40 MSTORE RETURNDATASIZE DUP3 MSTORE RETURNDATASIZE PUSH1 0x0 PUSH1 0x20 DUP5 ADD RETURNDATACOPY PUSH2 0x147 JUMP JUMPDEST PUSH1 0x60 SWAP2 POP JUMPDEST POP POP SWAP1 POP DUP1 PUSH2 0x18B JUMPI PUSH1 0x40 MLOAD PUSH32 0x8C379A000000000000000000000000000000000000000000000000000000000 DUP2 MSTORE PUSH1 0x4 ADD PUSH2 0x182 SWAP1 PUSH2 0x3EB JUMP JUMPDEST PUSH1 0x40 MLOAD DUP1 SWAP2 SUB SWAP1 REVERT JUMPDEST POP POP JUMP JUMPDEST PUSH32 0x808553ACACB0928AA69F09741A71F8C32945A5025B355B67FA2AFA75114507EC DUP7 DUP7 DUP7 DUP7 DUP7 DUP7 CALLVALUE TIMESTAMP PUSH1 0x40 MLOAD PUSH2 0x1CC SWAP9 SWAP8 SWAP7 SWAP6 SWAP5 SWAP4 SWAP3 SWAP2 SWAP1 PUSH2 0x37D JUMP JUMPDEST PUSH1 0x40 MLOAD DUP1 SWAP2 SUB SWAP1 LOG1 POP POP POP POP POP POP JUMP JUMPDEST PUSH1 0x0 DUP1 DUP4 PUSH1 0x1F DUP5 ADD SLT PUSH2 0x1F2 JUMPI PUSH2 0x1F1 PUSH2 0x445 JUMP JUMPDEST JUMPDEST DUP3 CALLDATALOAD SWAP1 POP PUSH8 0xFFFFFFFFFFFFFFFF DUP2 GT ISZERO PUSH2 0x20F JUMPI PUSH2 0x20E PUSH2 0x440 JUMP JUMPDEST JUMPDEST PUSH1 0x20 DUP4 ADD SWAP2 POP DUP4 PUSH1 0x1 DUP3 MUL DUP4 ADD GT ISZERO PUSH2 0x22B JUMPI PUSH2 0x22A PUSH2 0x44A JUMP JUMPDEST JUMPDEST SWAP3 POP SWAP3 SWAP1 POP JUMP JUMPDEST PUSH1 0x0 DUP1 PUSH1 0x0 DUP1 PUSH1 0x0 DUP1 PUSH1 0x60 DUP8 DUP10 SUB SLT ISZERO PUSH2 0x24F JUMPI PUSH2 0x24E PUSH2 0x454 JUMP JUMPDEST JUMPDEST PUSH1 0x0 DUP8 ADD CALLDATALOAD PUSH8 0xFFFFFFFFFFFFFFFF DUP2 GT ISZERO PUSH2 0x26D JUMPI PUSH2 0x26C PUSH2 0x44F JUMP JUMPDEST JUMPDEST PUSH2 0x279 DUP10 DUP3 DUP11 ADD PUSH2 0x1DC JUMP JUMPDEST SWAP7 POP SWAP7 POP POP PUSH1 0x20 DUP8 ADD CALLDATALOAD PUSH8 0xFFFFFFFFFFFFFFFF DUP2 GT ISZERO PUSH2 0x29C JUMPI PUSH2 0x29B PUSH2 0x44F JUMP JUMPDEST JUMPDEST PUSH2 0x2A8 DUP10 DUP3 DUP11 ADD PUSH2 0x1DC JUMP JUMPDEST SWAP5 POP SWAP5 POP POP PUSH1 0x40 DUP8 ADD CALLDATALOAD PUSH8 0xFFFFFFFFFFFFFFFF DUP2 GT ISZERO PUSH2 0x2CB JUMPI PUSH2 0x2CA PUSH2 0x44F JUMP JUMPDEST JUMPDEST PUSH2 0x2D7 DUP10 DUP3 DUP11 ADD PUSH2 0x1DC JUMP JUMPDEST SWAP3 POP SWAP3 POP POP SWAP3 SWAP6 POP SWAP3 SWAP6 POP SWAP3 SWAP6 JUMP JUMPDEST PUSH1 0x0 PUSH2 0x2F2 DUP4 DUP6 PUSH2 0x416 JUMP JUMPDEST SWAP4 POP PUSH2 0x2FF DUP4 DUP6 DUP5 PUSH2 0x431 JUMP JUMPDEST PUSH2 0x308 DUP4 PUSH2 0x459 JUMP JUMPDEST DUP5 ADD SWAP1 POP SWAP4 SWAP3 POP POP POP JUMP JUMPDEST PUSH1 0x0 PUSH2 0x320 PUSH1 0x14 DUP4 PUSH2 0x416 JUMP JUMPDEST SWAP2 POP PUSH2 0x32B DUP3 PUSH2 0x46A JUMP JUMPDEST PUSH1 0x20 DUP3 ADD SWAP1 POP SWAP2 SWAP1 POP JUMP JUMPDEST PUSH1 0x0 PUSH2 0x343 PUSH1 0x0 DUP4 PUSH2 0x40B JUMP JUMPDEST SWAP2 POP PUSH2 0x34E DUP3 PUSH2 0x493 JUMP JUMPDEST PUSH1 0x0 DUP3 ADD SWAP1 POP SWAP2 SWAP1 POP JUMP JUMPDEST PUSH2 0x362 DUP2 PUSH2 0x427 JUMP JUMPDEST DUP3 MSTORE POP POP JUMP JUMPDEST PUSH1 0x0 PUSH2 0x373 DUP3 PUSH2 0x336 JUMP JUMPDEST SWAP2 POP DUP2 SWAP1 POP SWAP2 SWAP1 POP JUMP JUMPDEST PUSH1 0x0 PUSH1 0xA0 DUP3 ADD SWAP1 POP DUP2 DUP2 SUB PUSH1 0x0 DUP4 ADD MSTORE PUSH2 0x398 DUP2 DUP11 DUP13 PUSH2 0x2E6 JUMP JUMPDEST SWAP1 POP DUP2 DUP2 SUB PUSH1 0x20 DUP4 ADD MSTORE PUSH2 0x3AD DUP2 DUP9 DUP11 PUSH2 0x2E6 JUMP JUMPDEST SWAP1 POP DUP2 DUP2 SUB PUSH1 0x40 DUP4 ADD MSTORE PUSH2 0x3C2 DUP2 DUP7 DUP9 PUSH2 0x2E6 JUMP JUMPDEST SWAP1 POP PUSH2 0x3D1 PUSH1 0x60 DUP4 ADD DUP6 PUSH2 0x359 JUMP JUMPDEST PUSH2 0x3DE PUSH1 0x80 DUP4 ADD DUP5 PUSH2 0x359 JUMP JUMPDEST SWAP10 SWAP9 POP POP POP POP POP POP POP POP POP JUMP JUMPDEST PUSH1 0x0 PUSH1 0x20 DUP3 ADD SWAP1 POP DUP2 DUP2 SUB PUSH1 0x0 DUP4 ADD MSTORE PUSH2 0x404 DUP2 PUSH2 0x313 JUMP JUMPDEST SWAP1 POP SWAP2 SWAP1 POP JUMP JUMPDEST PUSH1 0x0 DUP2 SWAP1 POP SWAP3 SWAP2 POP POP JUMP JUMPDEST PUSH1 0x0 DUP3 DUP3 MSTORE PUSH1 0x20 DUP3 ADD SWAP1 POP SWAP3 SWAP2 POP POP JUMP JUMPDEST PUSH1 0x0 DUP2 SWAP1 POP SWAP2 SWAP1 POP JUMP JUMPDEST DUP3 DUP2 DUP4 CALLDATACOPY PUSH1 0x0 DUP4 DUP4 ADD MSTORE POP POP POP JUMP JUMPDEST PUSH1 0x0 DUP1 REVERT JUMPDEST PUSH1 0x0 DUP1 REVERT JUMPDEST PUSH1 0x0 DUP1 REVERT JUMPDEST PUSH1 0x0 DUP1 REVERT JUMPDEST PUSH1 0x0 DUP1 REVERT JUMPDEST PUSH1 0x0 PUSH1 0x1F NOT PUSH1 0x1F DUP4 ADD AND SWAP1 POP SWAP2 SWAP1 POP JUMP JUMPDEST PUSH32 0x4661696C656420746F2073656E64204574686572000000000000000000000000 PUSH1 0x0 DUP3 ADD MSTORE POP JUMP JUMPDEST POP JUMP INVALID LOG2 PUSH5 0x6970667358 0x22 SLT KECCAK256 ADDRESS 0xBF 0xEE SWAP5 OR PUSH5 0x8855224B04 0xD5 NOT REVERT NOT 0xA6 BYTE CODESIZE 0xCE 0xBC PUSH31 0x75FD4AE4F0E68C389E665464736F6C63430008070033000000000000000000 "}}}