{"abi":[{"inputs":[],"stateMutability":"payable","type":"constructor"},{"anonymous":false,"inputs":[{"indexed":false,"internalType":"string","name":"_link","type":"string"},{"indexed":false,"internalType":"string","name":"_type","type":"string"},{"indexed":false,"internalType":"string","name":"_extra","type":"string"},{"indexed":false,"internalType":"uint256","name":"_score","type":"uint256"},{"indexed":false,"internalType":"uint256","name":"_time","type":"uint256"},{"indexed":false,"internalType":"address","name":"_sender","type":"address"}],"name":"newPublished","type":"event"},{"inputs":[{"internalType":"string","name":"_link","type":"string"},{"internalType":"string","name":"_type","type":"string"},{"internalType":"string","name":"_extra","type":"string"}],"name":"publish","outputs":[],"stateMutability":"payable","type":"function"},{"inputs":[],"name":"withdraw","outputs":[],"stateMutability":"nonpayable","type":"function"}],"evm":{"bytecode":{"linkReferences":{},"object":"6080604052336000806101000a81548173ffffffffffffffffffffffffffffffffffffffff021916908373ffffffffffffffffffffffffffffffffffffffff16021790555061051d806100536000396000f3fe6080604052600436106100295760003560e01c80633ccfd60b1461002e5780636d25e37714610045575b600080fd5b34801561003a57600080fd5b50610043610061565b005b61005f600480360381019061005a9190610234565b61018f565b005b60008054906101000a900473ffffffffffffffffffffffffffffffffffffffff1673ffffffffffffffffffffffffffffffffffffffff163373ffffffffffffffffffffffffffffffffffffffff16146100b957600080fd5b600047905060008060009054906101000a900473ffffffffffffffffffffffffffffffffffffffff1673ffffffffffffffffffffffffffffffffffffffff168260405161010590610379565b60006040518083038185875af1925050503d8060008114610142576040519150601f19603f3d011682016040523d82523d6000602084013e610147565b606091505b505090508061018b576040517f08c379a00000000000000000000000000000000000000000000000000000000081526004016101829061040a565b60405180910390fd5b5050565b7fd7ef8a74b7a9916e09dd7ebe9090b3dca5b703970a84d4dc2d42aa66bc11978d8686868686863442336040516101ce9998979695949392919061038e565b60405180910390a1505050505050565b60008083601f8401126101f4576101f3610496565b5b8235905067ffffffffffffffff81111561021157610210610491565b5b60208301915083600182028301111561022d5761022c61049b565b5b9250929050565b60008060008060008060608789031215610251576102506104a5565b5b600087013567ffffffffffffffff81111561026f5761026e6104a0565b5b61027b89828a016101de565b9650965050602087013567ffffffffffffffff81111561029e5761029d6104a0565b5b6102aa89828a016101de565b9450945050604087013567ffffffffffffffff8111156102cd576102cc6104a0565b5b6102d989828a016101de565b92509250509295509295509295565b6102f181610446565b82525050565b60006103038385610435565b9350610310838584610482565b610319836104aa565b840190509392505050565b6000610331601483610435565b915061033c826104bb565b602082019050919050565b600061035460008361042a565b915061035f826104e4565b600082019050919050565b61037381610478565b82525050565b600061038482610347565b9150819050919050565b600060c08201905081810360008301526103a9818b8d6102f7565b905081810360208301526103be81898b6102f7565b905081810360408301526103d38187896102f7565b90506103e2606083018661036a565b6103ef608083018561036a565b6103fc60a08301846102e8565b9a9950505050505050505050565b6000602082019050818103600083015261042381610324565b9050919050565b600081905092915050565b600082825260208201905092915050565b600061045182610458565b9050919050565b600073ffffffffffffffffffffffffffffffffffffffff82169050919050565b6000819050919050565b82818337600083830152505050565b600080fd5b600080fd5b600080fd5b600080fd5b600080fd5b6000601f19601f8301169050919050565b7f4661696c656420746f2073656e64204574686572000000000000000000000000600082015250565b5056fea2646970667358221220c524e16e67843138ad2d2c8cd9491d820b5921652dda27e0fc210c4e532a8ba064736f6c63430008070033","opcodes":"PUSH1 0x80 PUSH1 0x40 MSTORE CALLER PUSH1 0x0 DUP1 PUSH2 0x100 EXP DUP2 SLOAD DUP2 PUSH20 0xFFFFFFFFFFFFFFFFFFFFFFFFFFFFFFFFFFFFFFFF MUL NOT AND SWAP1 DUP4 PUSH20 0xFFFFFFFFFFFFFFFFFFFFFFFFFFFFFFFFFFFFFFFF AND MUL OR SWAP1 SSTORE POP PUSH2 0x51D DUP1 PUSH2 0x53 PUSH1 0x0 CODECOPY PUSH1 0x0 RETURN INVALID PUSH1 0x80 PUSH1 0x40 MSTORE PUSH1 0x4 CALLDATASIZE LT PUSH2 0x29 JUMPI PUSH1 0x0 CALLDATALOAD PUSH1 0xE0 SHR DUP1 PUSH4 0x3CCFD60B EQ PUSH2 0x2E JUMPI DUP1 PUSH4 0x6D25E377 EQ PUSH2 0x45 JUMPI JUMPDEST PUSH1 0x0 DUP1 REVERT JUMPDEST CALLVALUE DUP1 ISZERO PUSH2 0x3A JUMPI PUSH1 0x0 DUP1 REVERT JUMPDEST POP PUSH2 0x43 PUSH2 0x61 JUMP JUMPDEST STOP JUMPDEST PUSH2 0x5F PUSH1 0x4 DUP1 CALLDATASIZE SUB DUP2 ADD SWAP1 PUSH2 0x5A SWAP2 SWAP1 PUSH2 0x234 JUMP JUMPDEST PUSH2 0x18F JUMP JUMPDEST STOP JUMPDEST PUSH1 0x0 DUP1 SLOAD SWAP1 PUSH2 0x100 EXP SWAP1 DIV PUSH20 0xFFFFFFFFFFFFFFFFFFFFFFFFFFFFFFFFFFFFFFFF AND PUSH20 0xFFFFFFFFFFFFFFFFFFFFFFFFFFFFFFFFFFFFFFFF AND CALLER PUSH20 0xFFFFFFFFFFFFFFFFFFFFFFFFFFFFFFFFFFFFFFFF AND EQ PUSH2 0xB9 JUMPI PUSH1 0x0 DUP1 REVERT JUMPDEST PUSH1 0x0 SELFBALANCE SWAP1 POP PUSH1 0x0 DUP1 PUSH1 0x0 SWAP1 SLOAD SWAP1 PUSH2 0x100 EXP SWAP1 DIV PUSH20 0xFFFFFFFFFFFFFFFFFFFFFFFFFFFFFFFFFFFFFFFF AND PUSH20 0xFFFFFFFFFFFFFFFFFFFFFFFFFFFFFFFFFFFFFFFF AND DUP3 PUSH1 0x40 MLOAD PUSH2 0x105 SWAP1 PUSH2 0x379 JUMP JUMPDEST PUSH1 0x0 PUSH1 0x40 MLOAD DUP1 DUP4 SUB DUP2 DUP6 DUP8 GAS CALL SWAP3 POP POP POP RETURNDATASIZE DUP1 PUSH1 0x0 DUP2 EQ PUSH2 0x142 JUMPI PUSH1 0x40 MLOAD SWAP2 POP PUSH1 0x1F NOT PUSH1 0x3F RETURNDATASIZE ADD AND DUP3 ADD PUSH1 0x40 MSTORE RETURNDATASIZE DUP3 MSTORE RETURNDATASIZE PUSH1 0x0 PUSH1 0x20 DUP5 ADD RETURNDATACOPY PUSH2 0x147 JUMP JUMPDEST PUSH1 0x60 SWAP2 POP JUMPDEST POP POP SWAP1 POP DUP1 PUSH2 0x18B JUMPI PUSH1 0x40 MLOAD PUSH32 0x8C379A000000000000000000000000000000000000000000000000000000000 DUP2 MSTORE PUSH1 0x4 ADD PUSH2 0x182 SWAP1 PUSH2 0x40A JUMP JUMPDEST PUSH1 0x40 MLOAD DUP1 SWAP2 SUB SWAP1 REVERT JUMPDEST POP POP JUMP JUMPDEST PUSH32 0xD7EF8A74B7A9916E09DD7EBE9090B3DCA5B703970A84D4DC2D42AA66BC11978D DUP7 DUP7 DUP7 DUP7 DUP7 DUP7 CALLVALUE TIMESTAMP CALLER PUSH1 0x40 MLOAD PUSH2 0x1CE SWAP10 SWAP9 SWAP8 SWAP7 SWAP6 SWAP5 SWAP4 SWAP3 SWAP2 SWAP1 PUSH2 0x38E JUMP JUMPDEST PUSH1 0x40 MLOAD DUP1 SWAP2 SUB SWAP1 LOG1 POP POP POP POP POP POP JUMP JUMPDEST PUSH1 0x0 DUP1 DUP4 PUSH1 0x1F DUP5 ADD SLT PUSH2 0x1F4 JUMPI PUSH2 0x1F3 PUSH2 0x496 JUMP JUMPDEST JUMPDEST DUP3 CALLDATALOAD SWAP1 POP PUSH8 0xFFFFFFFFFFFFFFFF DUP2 GT ISZERO PUSH2 0x211 JUMPI PUSH2 0x210 PUSH2 0x491 JUMP JUMPDEST JUMPDEST PUSH1 0x20 DUP4 ADD SWAP2 POP DUP4 PUSH1 0x1 DUP3 MUL DUP4 ADD GT ISZERO PUSH2 0x22D JUMPI PUSH2 0x22C PUSH2 0x49B JUMP JUMPDEST JUMPDEST SWAP3 POP SWAP3 SWAP1 POP JUMP JUMPDEST PUSH1 0x0 DUP1 PUSH1 0x0 DUP1 PUSH1 0x0 DUP1 PUSH1 0x60 DUP8 DUP10 SUB SLT ISZERO PUSH2 0x251 JUMPI PUSH2 0x250 PUSH2 0x4A5 JUMP JUMPDEST JUMPDEST PUSH1 0x0 DUP8 ADD CALLDATALOAD PUSH8 0xFFFFFFFFFFFFFFFF DUP2 GT ISZERO PUSH2 0x26F JUMPI PUSH2 0x26E PUSH2 0x4A0 JUMP JUMPDEST JUMPDEST PUSH2 0x27B DUP10 DUP3 DUP11 ADD PUSH2 0x1DE JUMP JUMPDEST SWAP7 POP SWAP7 POP POP PUSH1 0x20 DUP8 ADD CALLDATALOAD PUSH8 0xFFFFFFFFFFFFFFFF DUP2 GT ISZERO PUSH2 0x29E JUMPI PUSH2 0x29D PUSH2 0x4A0 JUMP JUMPDEST JUMPDEST PUSH2 0x2AA DUP10 DUP3 DUP11 ADD PUSH2 0x1DE JUMP JUMPDEST SWAP5 POP SWAP5 POP POP PUSH1 0x40 DUP8 ADD CALLDATALOAD PUSH8 0xFFFFFFFFFFFFFFFF DUP2 GT ISZERO PUSH2 0x2CD JUMPI PUSH2 0x2CC PUSH2 0x4A0 JUMP JUMPDEST JUMPDEST PUSH2 0x2D9 DUP10 DUP3 DUP11 ADD PUSH2 0x1DE JUMP JUMPDEST SWAP3 POP SWAP3 POP POP SWAP3 SWAP6 POP SWAP3 SWAP6 POP SWAP3 SWAP6 JUMP JUMPDEST PUSH2 0x2F1 DUP2 PUSH2 0x446 JUMP JUMPDEST DUP3 MSTORE POP POP JUMP JUMPDEST PUSH1 0x0 PUSH2 0x303 DUP4 DUP6 PUSH2 0x435 JUMP JUMPDEST SWAP4 POP PUSH2 0x310 DUP4 DUP6 DUP5 PUSH2 0x482 JUMP JUMPDEST PUSH2 0x319 DUP4 PUSH2 0x4AA JUMP JUMPDEST DUP5 ADD SWAP1 POP SWAP4 SWAP3 POP POP POP JUMP JUMPDEST PUSH1 0x0 PUSH2 0x331 PUSH1 0x14 DUP4 PUSH2 0x435 JUMP JUMPDEST SWAP2 POP PUSH2 0x33C DUP3 PUSH2 0x4BB JUMP JUMPDEST PUSH1 0x20 DUP3 ADD SWAP1 POP SWAP2 SWAP1 POP JUMP JUMPDEST PUSH1 0x0 PUSH2 0x354 PUSH1 0x0 DUP4 PUSH2 0x42A JUMP JUMPDEST SWAP2 POP PUSH2 0x35F DUP3 PUSH2 0x4E4 JUMP JUMPDEST PUSH1 0x0 DUP3 ADD SWAP1 POP SWAP2 SWAP1 POP JUMP JUMPDEST PUSH2 0x373 DUP2 PUSH2 0x478 JUMP JUMPDEST DUP3 MSTORE POP POP JUMP JUMPDEST PUSH1 0x0 PUSH2 0x384 DUP3 PUSH2 0x347 JUMP JUMPDEST SWAP2 POP DUP2 SWAP1 POP SWAP2 SWAP1 POP JUMP JUMPDEST PUSH1 0x0 PUSH1 0xC0 DUP3 ADD SWAP1 POP DUP2 DUP2 SUB PUSH1 0x0 DUP4 ADD MSTORE PUSH2 0x3A9 DUP2 DUP12 DUP14 PUSH2 0x2F7 JUMP JUMPDEST SWAP1 POP DUP2 DUP2 SUB PUSH1 0x20 DUP4 ADD MSTORE PUSH2 0x3BE DUP2 DUP10 DUP12 PUSH2 0x2F7 JUMP JUMPDEST SWAP1 POP DUP2 DUP2 SUB PUSH1 0x40 DUP4 ADD MSTORE PUSH2 0x3D3 DUP2 DUP8 DUP10 PUSH2 0x2F7 JUMP JUMPDEST SWAP1 POP PUSH2 0x3E2 PUSH1 0x60 DUP4 ADD DUP7 PUSH2 0x36A JUMP JUMPDEST PUSH2 0x3EF PUSH1 0x80 DUP4 ADD DUP6 PUSH2 0x36A JUMP JUMPDEST PUSH2 0x3FC PUSH1 0xA0 DUP4 ADD DUP5 PUSH2 0x2E8 JUMP JUMPDEST SWAP11 SWAP10 POP POP POP POP POP POP POP POP POP POP JUMP JUMPDEST PUSH1 0x0 PUSH1 0x20 DUP3 ADD SWAP1 POP DUP2 DUP2 SUB PUSH1 0x0 DUP4 ADD MSTORE PUSH2 0x423 DUP2 PUSH2 0x324 JUMP JUMPDEST SWAP1 POP SWAP2 SWAP1 POP JUMP JUMPDEST PUSH1 0x0 DUP2 SWAP1 POP SWAP3 SWAP2 POP POP JUMP JUMPDEST PUSH1 0x0 DUP3 DUP3 MSTORE PUSH1 0x20 DUP3 ADD SWAP1 POP SWAP3 SWAP2 POP POP JUMP JUMPDEST PUSH1 0x0 PUSH2 0x451 DUP3 PUSH2 0x458 JUMP JUMPDEST SWAP1 POP SWAP2 SWAP1 POP JUMP JUMPDEST PUSH1 0x0 PUSH20 0xFFFFFFFFFFFFFFFFFFFFFFFFFFFFFFFFFFFFFFFF DUP3 AND SWAP1 POP SWAP2 SWAP1 POP JUMP JUMPDEST PUSH1 0x0 DUP2 SWAP1 POP SWAP2 SWAP1 POP JUMP JUMPDEST DUP3 DUP2 DUP4 CALLDATACOPY PUSH1 0x0 DUP4 DUP4 ADD MSTORE POP POP POP JUMP JUMPDEST PUSH1 0x0 DUP1 REVERT JUMPDEST PUSH1 0x0 DUP1 REVERT JUMPDEST PUSH1 0x0 DUP1 REVERT JUMPDEST PUSH1 0x0 DUP1 REVERT JUMPDEST PUSH1 0x0 DUP1 REVERT JUMPDEST PUSH1 0x0 PUSH1 0x1F NOT PUSH1 0x1F DUP4 ADD AND SWAP1 POP SWAP2 SWAP1 POP JUMP JUMPDEST PUSH32 0x4661696C656420746F2073656E64204574686572000000000000000000000000 PUSH1 0x0 DUP3 ADD MSTORE POP JUMP JUMPDEST POP JUMP INVALID LOG2 PUSH5 0x6970667358 0x22 SLT KECCAK256 0xC5 0x24 0xE1 PUSH15 0x67843138AD2D2C8CD9491D820B5921 PUSH6 0x2DDA27E0FC21 0xC 0x4E MSTORE8 0x2A DUP12 LOG0 PUSH5 0x736F6C6343 STOP ADDMOD SMOD STOP CALLER "}}}